{
  "abi": [
    {
      "type": "constructor",
      "inputs": [],
      "stateMutability": "nonpayable"
    },
    {
      "name": "AddressEmptyCode",
      "type": "error",
      "inputs": [
        {
          "name": "target",
          "type": "address",
          "internalType": "address"
        }
      ]
    },
    {
      "name": "ERC1967InvalidImplementation",
      "type": "error",
      "inputs": [
        {
          "name": "implementation",
          "type": "address",
          "internalType": "address"
        }
      ]
    },
    {
      "name": "ERC1967NonPayable",
      "type": "error",
      "inputs": []
    },
    {
      "name": "FailedCall",
      "type": "error",
      "inputs": []
    },
    {
      "name": "InsufficientCapabilitiesForProduct",
      "type": "error",
      "inputs": [
        {
          "name": "productType",
          "type": "uint8",
          "internalType": "enum ServiceProviderRegistryStorage.ProductType"
        }
      ]
    },
    {
      "name": "InvalidInitialization",
      "type": "error",
      "inputs": []
    },
    {
      "name": "NotInitializing",
      "type": "error",
      "inputs": []
    },
    {
      "name": "OwnableInvalidOwner",
      "type": "error",
      "inputs": [
        {
          "name": "owner",
          "type": "address",
          "internalType": "address"
        }
      ]
    },
    {
      "name": "OwnableUnauthorizedAccount",
      "type": "error",
      "inputs": [
        {
          "name": "account",
          "type": "address",
          "internalType": "address"
        }
      ]
    },
    {
      "name": "UUPSUnauthorizedCallContext",
      "type": "error",
      "inputs": []
    },
    {
      "name": "UUPSUnsupportedProxiableUUID",
      "type": "error",
      "inputs": [
        {
          "name": "slot",
          "type": "bytes32",
          "internalType": "bytes32"
        }
      ]
    },
    {
      "name": "ContractUpgraded",
      "type": "event",
      "inputs": [
        {
          "name": "version",
          "type": "string",
          "indexed": false,
          "internalType": "string"
        },
        {
          "name": "implementation",
          "type": "address",
          "indexed": false,
          "internalType": "address"
        }
      ],
      "anonymous": false
    },
    {
      "name": "EIP712DomainChanged",
      "type": "event",
      "inputs": [],
      "anonymous": false
    },
    {
      "name": "Initialized",
      "type": "event",
      "inputs": [
        {
          "name": "version",
          "type": "uint64",
          "indexed": false,
          "internalType": "uint64"
        }
      ],
      "anonymous": false
    },
    {
      "name": "OwnershipTransferred",
      "type": "event",
      "inputs": [
        {
          "name": "previousOwner",
          "type": "address",
          "indexed": true,
          "internalType": "address"
        },
        {
          "name": "newOwner",
          "type": "address",
          "indexed": true,
          "internalType": "address"
        }
      ],
      "anonymous": false
    },
    {
      "name": "ProductAdded",
      "type": "event",
      "inputs": [
        {
          "name": "providerId",
          "type": "uint256",
          "indexed": true,
          "internalType": "uint256"
        },
        {
          "name": "productType",
          "type": "uint8",
          "indexed": true,
          "internalType": "enum ServiceProviderRegistryStorage.ProductType"
        },
        {
          "name": "serviceProvider",
          "type": "address",
          "indexed": false,
          "internalType": "address"
        },
        {
          "name": "capabilityKeys",
          "type": "string[]",
          "indexed": false,
          "internalType": "string[]"
        },
        {
          "name": "capabilityValues",
          "type": "bytes[]",
          "indexed": false,
          "internalType": "bytes[]"
        }
      ],
      "anonymous": false
    },
    {
      "name": "ProductRemoved",
      "type": "event",
      "inputs": [
        {
          "name": "providerId",
          "type": "uint256",
          "indexed": true,
          "internalType": "uint256"
        },
        {
          "name": "productType",
          "type": "uint8",
          "indexed": true,
          "internalType": "enum ServiceProviderRegistryStorage.ProductType"
        }
      ],
      "anonymous": false
    },
    {
      "name": "ProductUpdated",
      "type": "event",
      "inputs": [
        {
          "name": "providerId",
          "type": "uint256",
          "indexed": true,
          "internalType": "uint256"
        },
        {
          "name": "productType",
          "type": "uint8",
          "indexed": true,
          "internalType": "enum ServiceProviderRegistryStorage.ProductType"
        },
        {
          "name": "serviceProvider",
          "type": "address",
          "indexed": false,
          "internalType": "address"
        },
        {
          "name": "capabilityKeys",
          "type": "string[]",
          "indexed": false,
          "internalType": "string[]"
        },
        {
          "name": "capabilityValues",
          "type": "bytes[]",
          "indexed": false,
          "internalType": "bytes[]"
        }
      ],
      "anonymous": false
    },
    {
      "name": "ProviderInfoUpdated",
      "type": "event",
      "inputs": [
        {
          "name": "providerId",
          "type": "uint256",
          "indexed": true,
          "internalType": "uint256"
        }
      ],
      "anonymous": false
    },
    {
      "name": "ProviderRegistered",
      "type": "event",
      "inputs": [
        {
          "name": "providerId",
          "type": "uint256",
          "indexed": true,
          "internalType": "uint256"
        },
        {
          "name": "serviceProvider",
          "type": "address",
          "indexed": true,
          "internalType": "address"
        },
        {
          "name": "payee",
          "type": "address",
          "indexed": true,
          "internalType": "address"
        }
      ],
      "anonymous": false
    },
    {
      "name": "ProviderRemoved",
      "type": "event",
      "inputs": [
        {
          "name": "providerId",
          "type": "uint256",
          "indexed": true,
          "internalType": "uint256"
        }
      ],
      "anonymous": false
    },
    {
      "name": "UpgradeAnnounced",
      "type": "event",
      "inputs": [
        {
          "name": "plannedUpgrade",
          "type": "tuple",
          "indexed": false,
          "components": [
            {
              "name": "nextImplementation",
              "type": "address",
              "internalType": "address"
            },
            {
              "name": "afterEpoch",
              "type": "uint96",
              "internalType": "uint96"
            }
          ],
          "internalType": "struct ServiceProviderRegistry.PlannedUpgrade"
        }
      ],
      "anonymous": false
    },
    {
      "name": "Upgraded",
      "type": "event",
      "inputs": [
        {
          "name": "implementation",
          "type": "address",
          "indexed": true,
          "internalType": "address"
        }
      ],
      "anonymous": false
    },
    {
      "name": "MAX_CAPABILITIES",
      "type": "function",
      "inputs": [],
      "outputs": [
        {
          "name": "",
          "type": "uint256",
          "internalType": "uint256"
        }
      ],
      "stateMutability": "view"
    },
    {
      "name": "MAX_CAPABILITY_KEY_LENGTH",
      "type": "function",
      "inputs": [],
      "outputs": [
        {
          "name": "",
          "type": "uint256",
          "internalType": "uint256"
        }
      ],
      "stateMutability": "view"
    },
    {
      "name": "MAX_CAPABILITY_VALUE_LENGTH",
      "type": "function",
      "inputs": [],
      "outputs": [
        {
          "name": "",
          "type": "uint256",
          "internalType": "uint256"
        }
      ],
      "stateMutability": "view"
    },
    {
      "name": "REGISTRATION_FEE",
      "type": "function",
      "inputs": [],
      "outputs": [
        {
          "name": "",
          "type": "uint256",
          "internalType": "uint256"
        }
      ],
      "stateMutability": "view"
    },
    {
      "name": "UPGRADE_INTERFACE_VERSION",
      "type": "function",
      "inputs": [],
      "outputs": [
        {
          "name": "",
          "type": "string",
          "internalType": "string"
        }
      ],
      "stateMutability": "view"
    },
    {
      "name": "VERSION",
      "type": "function",
      "inputs": [],
      "outputs": [
        {
          "name": "",
          "type": "string",
          "internalType": "string"
        }
      ],
      "stateMutability": "view"
    },
    {
      "name": "activeProductTypeProviderCount",
      "type": "function",
      "inputs": [
        {
          "name": "productType",
          "type": "uint8",
          "internalType": "enum ServiceProviderRegistryStorage.ProductType"
        }
      ],
      "outputs": [
        {
          "name": "count",
          "type": "uint256",
          "internalType": "uint256"
        }
      ],
      "stateMutability": "view"
    },
    {
      "name": "activeProviderCount",
      "type": "function",
      "inputs": [],
      "outputs": [
        {
          "name": "",
          "type": "uint256",
          "internalType": "uint256"
        }
      ],
      "stateMutability": "view"
    },
    {
      "name": "addProduct",
      "type": "function",
      "inputs": [
        {
          "name": "productType",
          "type": "uint8",
          "internalType": "enum ServiceProviderRegistryStorage.ProductType"
        },
        {
          "name": "capabilityKeys",
          "type": "string[]",
          "internalType": "string[]"
        },
        {
          "name": "capabilityValues",
          "type": "bytes[]",
          "internalType": "bytes[]"
        }
      ],
      "outputs": [],
      "stateMutability": "nonpayable"
    },
    {
      "name": "addressToProviderId",
      "type": "function",
      "inputs": [
        {
          "name": "providerAddress",
          "type": "address",
          "internalType": "address"
        }
      ],
      "outputs": [
        {
          "name": "providerId",
          "type": "uint256",
          "internalType": "uint256"
        }
      ],
      "stateMutability": "view"
    },
    {
      "name": "announcePlannedUpgrade",
      "type": "function",
      "inputs": [
        {
          "name": "plannedUpgrade",
          "type": "tuple",
          "components": [
            {
              "name": "nextImplementation",
              "type": "address",
              "internalType": "address"
            },
            {
              "name": "afterEpoch",
              "type": "uint96",
              "internalType": "uint96"
            }
          ],
          "internalType": "struct ServiceProviderRegistry.PlannedUpgrade"
        }
      ],
      "outputs": [],
      "stateMutability": "nonpayable"
    },
    {
      "name": "eip712Domain",
      "type": "function",
      "inputs": [],
      "outputs": [
        {
          "name": "fields",
          "type": "bytes1",
          "internalType": "bytes1"
        },
        {
          "name": "name",
          "type": "string",
          "internalType": "string"
        },
        {
          "name": "version",
          "type": "string",
          "internalType": "string"
        },
        {
          "name": "chainId",
          "type": "uint256",
          "internalType": "uint256"
        },
        {
          "name": "verifyingContract",
          "type": "address",
          "internalType": "address"
        },
        {
          "name": "salt",
          "type": "bytes32",
          "internalType": "bytes32"
        },
        {
          "name": "extensions",
          "type": "uint256[]",
          "internalType": "uint256[]"
        }
      ],
      "stateMutability": "view"
    },
    {
      "name": "getAllActiveProviders",
      "type": "function",
      "inputs": [
        {
          "name": "offset",
          "type": "uint256",
          "internalType": "uint256"
        },
        {
          "name": "limit",
          "type": "uint256",
          "internalType": "uint256"
        }
      ],
      "outputs": [
        {
          "name": "providerIds",
          "type": "uint256[]",
          "internalType": "uint256[]"
        },
        {
          "name": "hasMore",
          "type": "bool",
          "internalType": "bool"
        }
      ],
      "stateMutability": "view"
    },
    {
      "name": "getAllProductCapabilities",
      "type": "function",
      "inputs": [
        {
          "name": "providerId",
          "type": "uint256",
          "internalType": "uint256"
        },
        {
          "name": "productType",
          "type": "uint8",
          "internalType": "enum ServiceProviderRegistryStorage.ProductType"
        }
      ],
      "outputs": [
        {
          "name": "isActive",
          "type": "bool",
          "internalType": "bool"
        },
        {
          "name": "keys",
          "type": "string[]",
          "internalType": "string[]"
        },
        {
          "name": "values",
          "type": "bytes[]",
          "internalType": "bytes[]"
        }
      ],
      "stateMutability": "view"
    },
    {
      "name": "getNextProviderId",
      "type": "function",
      "inputs": [],
      "outputs": [
        {
          "name": "",
          "type": "uint256",
          "internalType": "uint256"
        }
      ],
      "stateMutability": "view"
    },
    {
      "name": "getProductCapabilities",
      "type": "function",
      "inputs": [
        {
          "name": "providerId",
          "type": "uint256",
          "internalType": "uint256"
        },
        {
          "name": "productType",
          "type": "uint8",
          "internalType": "enum ServiceProviderRegistryStorage.ProductType"
        },
        {
          "name": "keys",
          "type": "string[]",
          "internalType": "string[]"
        }
      ],
      "outputs": [
        {
          "name": "values",
          "type": "bytes[]",
          "internalType": "bytes[]"
        }
      ],
      "stateMutability": "view"
    },
    {
      "name": "getProvider",
      "type": "function",
      "inputs": [
        {
          "name": "providerId",
          "type": "uint256",
          "internalType": "uint256"
        }
      ],
      "outputs": [
        {
          "name": "info",
          "type": "tuple",
          "components": [
            {
              "name": "providerId",
              "type": "uint256",
              "internalType": "uint256"
            },
            {
              "name": "info",
              "type": "tuple",
              "components": [
                {
                  "name": "serviceProvider",
                  "type": "address",
                  "internalType": "address"
                },
                {
                  "name": "payee",
                  "type": "address",
                  "internalType": "address"
                },
                {
                  "name": "name",
                  "type": "string",
                  "internalType": "string"
                },
                {
                  "name": "description",
                  "type": "string",
                  "internalType": "string"
                },
                {
                  "name": "isActive",
                  "type": "bool",
                  "internalType": "bool"
                }
              ],
              "internalType": "struct ServiceProviderRegistryStorage.ServiceProviderInfo"
            }
          ],
          "internalType": "struct ServiceProviderRegistry.ServiceProviderInfoView"
        }
      ],
      "stateMutability": "view"
    },
    {
      "name": "getProviderByAddress",
      "type": "function",
      "inputs": [
        {
          "name": "providerAddress",
          "type": "address",
          "internalType": "address"
        }
      ],
      "outputs": [
        {
          "name": "info",
          "type": "tuple",
          "components": [
            {
              "name": "providerId",
              "type": "uint256",
              "internalType": "uint256"
            },
            {
              "name": "info",
              "type": "tuple",
              "components": [
                {
                  "name": "serviceProvider",
                  "type": "address",
                  "internalType": "address"
                },
                {
                  "name": "payee",
                  "type": "address",
                  "internalType": "address"
                },
                {
                  "name": "name",
                  "type": "string",
                  "internalType": "string"
                },
                {
                  "name": "description",
                  "type": "string",
                  "internalType": "string"
                },
                {
                  "name": "isActive",
                  "type": "bool",
                  "internalType": "bool"
                }
              ],
              "internalType": "struct ServiceProviderRegistryStorage.ServiceProviderInfo"
            }
          ],
          "internalType": "struct ServiceProviderRegistry.ServiceProviderInfoView"
        }
      ],
      "stateMutability": "view"
    },
    {
      "name": "getProviderCount",
      "type": "function",
      "inputs": [],
      "outputs": [
        {
          "name": "",
          "type": "uint256",
          "internalType": "uint256"
        }
      ],
      "stateMutability": "view"
    },
    {
      "name": "getProviderIdByAddress",
      "type": "function",
      "inputs": [
        {
          "name": "providerAddress",
          "type": "address",
          "internalType": "address"
        }
      ],
      "outputs": [
        {
          "name": "",
          "type": "uint256",
          "internalType": "uint256"
        }
      ],
      "stateMutability": "view"
    },
    {
      "name": "getProviderPayee",
      "type": "function",
      "inputs": [
        {
          "name": "providerId",
          "type": "uint256",
          "internalType": "uint256"
        }
      ],
      "outputs": [
        {
          "name": "payee",
          "type": "address",
          "internalType": "address"
        }
      ],
      "stateMutability": "view"
    },
    {
      "name": "getProviderWithProduct",
      "type": "function",
      "inputs": [
        {
          "name": "providerId",
          "type": "uint256",
          "internalType": "uint256"
        },
        {
          "name": "productType",
          "type": "uint8",
          "internalType": "enum ServiceProviderRegistryStorage.ProductType"
        }
      ],
      "outputs": [
        {
          "name": "",
          "type": "tuple",
          "components": [
            {
              "name": "providerId",
              "type": "uint256",
              "internalType": "uint256"
            },
            {
              "name": "providerInfo",
              "type": "tuple",
              "components": [
                {
                  "name": "serviceProvider",
                  "type": "address",
                  "internalType": "address"
                },
                {
                  "name": "payee",
                  "type": "address",
                  "internalType": "address"
                },
                {
                  "name": "name",
                  "type": "string",
                  "internalType": "string"
                },
                {
                  "name": "description",
                  "type": "string",
                  "internalType": "string"
                },
                {
                  "name": "isActive",
                  "type": "bool",
                  "internalType": "bool"
                }
              ],
              "internalType": "struct ServiceProviderRegistryStorage.ServiceProviderInfo"
            },
            {
              "name": "product",
              "type": "tuple",
              "components": [
                {
                  "name": "productType",
                  "type": "uint8",
                  "internalType": "enum ServiceProviderRegistryStorage.ProductType"
                },
                {
                  "name": "capabilityKeys",
                  "type": "string[]",
                  "internalType": "string[]"
                },
                {
                  "name": "isActive",
                  "type": "bool",
                  "internalType": "bool"
                }
              ],
              "internalType": "struct ServiceProviderRegistryStorage.ServiceProduct"
            },
            {
              "name": "productCapabilityValues",
              "type": "bytes[]",
              "internalType": "bytes[]"
            }
          ],
          "internalType": "struct ServiceProviderRegistryStorage.ProviderWithProduct"
        }
      ],
      "stateMutability": "view"
    },
    {
      "name": "getProvidersByIds",
      "type": "function",
      "inputs": [
        {
          "name": "providerIds",
          "type": "uint256[]",
          "internalType": "uint256[]"
        }
      ],
      "outputs": [
        {
          "name": "providerInfos",
          "type": "tuple[]",
          "components": [
            {
              "name": "providerId",
              "type": "uint256",
              "internalType": "uint256"
            },
            {
              "name": "info",
              "type": "tuple",
              "components": [
                {
                  "name": "serviceProvider",
                  "type": "address",
                  "internalType": "address"
                },
                {
                  "name": "payee",
                  "type": "address",
                  "internalType": "address"
                },
                {
                  "name": "name",
                  "type": "string",
                  "internalType": "string"
                },
                {
                  "name": "description",
                  "type": "string",
                  "internalType": "string"
                },
                {
                  "name": "isActive",
                  "type": "bool",
                  "internalType": "bool"
                }
              ],
              "internalType": "struct ServiceProviderRegistryStorage.ServiceProviderInfo"
            }
          ],
          "internalType": "struct ServiceProviderRegistry.ServiceProviderInfoView[]"
        },
        {
          "name": "validIds",
          "type": "bool[]",
          "internalType": "bool[]"
        }
      ],
      "stateMutability": "view"
    },
    {
      "name": "getProvidersByProductType",
      "type": "function",
      "inputs": [
        {
          "name": "productType",
          "type": "uint8",
          "internalType": "enum ServiceProviderRegistryStorage.ProductType"
        },
        {
          "name": "onlyActive",
          "type": "bool",
          "internalType": "bool"
        },
        {
          "name": "offset",
          "type": "uint256",
          "internalType": "uint256"
        },
        {
          "name": "limit",
          "type": "uint256",
          "internalType": "uint256"
        }
      ],
      "outputs": [
        {
          "name": "result",
          "type": "tuple",
          "components": [
            {
              "name": "providers",
              "type": "tuple[]",
              "components": [
                {
                  "name": "providerId",
                  "type": "uint256",
                  "internalType": "uint256"
                },
                {
                  "name": "providerInfo",
                  "type": "tuple",
                  "components": [
                    {
                      "name": "serviceProvider",
                      "type": "address",
                      "internalType": "address"
                    },
                    {
                      "name": "payee",
                      "type": "address",
                      "internalType": "address"
                    },
                    {
                      "name": "name",
                      "type": "string",
                      "internalType": "string"
                    },
                    {
                      "name": "description",
                      "type": "string",
                      "internalType": "string"
                    },
                    {
                      "name": "isActive",
                      "type": "bool",
                      "internalType": "bool"
                    }
                  ],
                  "internalType": "struct ServiceProviderRegistryStorage.ServiceProviderInfo"
                },
                {
                  "name": "product",
                  "type": "tuple",
                  "components": [
                    {
                      "name": "productType",
                      "type": "uint8",
                      "internalType": "enum ServiceProviderRegistryStorage.ProductType"
                    },
                    {
                      "name": "capabilityKeys",
                      "type": "string[]",
                      "internalType": "string[]"
                    },
                    {
                      "name": "isActive",
                      "type": "bool",
                      "internalType": "bool"
                    }
                  ],
                  "internalType": "struct ServiceProviderRegistryStorage.ServiceProduct"
                },
                {
                  "name": "productCapabilityValues",
                  "type": "bytes[]",
                  "internalType": "bytes[]"
                }
              ],
              "internalType": "struct ServiceProviderRegistryStorage.ProviderWithProduct[]"
            },
            {
              "name": "hasMore",
              "type": "bool",
              "internalType": "bool"
            }
          ],
          "internalType": "struct ServiceProviderRegistryStorage.PaginatedProviders"
        }
      ],
      "stateMutability": "view"
    },
    {
      "name": "initialize",
      "type": "function",
      "inputs": [],
      "outputs": [],
      "stateMutability": "nonpayable"
    },
    {
      "name": "isProviderActive",
      "type": "function",
      "inputs": [
        {
          "name": "providerId",
          "type": "uint256",
          "internalType": "uint256"
        }
      ],
      "outputs": [
        {
          "name": "",
          "type": "bool",
          "internalType": "bool"
        }
      ],
      "stateMutability": "view"
    },
    {
      "name": "isRegisteredProvider",
      "type": "function",
      "inputs": [
        {
          "name": "provider",
          "type": "address",
          "internalType": "address"
        }
      ],
      "outputs": [
        {
          "name": "",
          "type": "bool",
          "internalType": "bool"
        }
      ],
      "stateMutability": "view"
    },
    {
      "name": "migrate",
      "type": "function",
      "inputs": [
        {
          "name": "newVersion",
          "type": "string",
          "internalType": "string"
        }
      ],
      "outputs": [],
      "stateMutability": "nonpayable"
    },
    {
      "name": "nextUpgrade",
      "type": "function",
      "inputs": [],
      "outputs": [
        {
          "name": "nextImplementation",
          "type": "address",
          "internalType": "address"
        },
        {
          "name": "afterEpoch",
          "type": "uint96",
          "internalType": "uint96"
        }
      ],
      "stateMutability": "view"
    },
    {
      "name": "owner",
      "type": "function",
      "inputs": [],
      "outputs": [
        {
          "name": "",
          "type": "address",
          "internalType": "address"
        }
      ],
      "stateMutability": "view"
    },
    {
      "name": "productCapabilities",
      "type": "function",
      "inputs": [
        {
          "name": "providerId",
          "type": "uint256",
          "internalType": "uint256"
        },
        {
          "name": "productType",
          "type": "uint8",
          "internalType": "enum ServiceProviderRegistryStorage.ProductType"
        },
        {
          "name": "key",
          "type": "string",
          "internalType": "string"
        }
      ],
      "outputs": [
        {
          "name": "value",
          "type": "bytes",
          "internalType": "bytes"
        }
      ],
      "stateMutability": "view"
    },
    {
      "name": "productTypeProviderCount",
      "type": "function",
      "inputs": [
        {
          "name": "productType",
          "type": "uint8",
          "internalType": "enum ServiceProviderRegistryStorage.ProductType"
        }
      ],
      "outputs": [
        {
          "name": "count",
          "type": "uint256",
          "internalType": "uint256"
        }
      ],
      "stateMutability": "view"
    },
    {
      "name": "providerHasProduct",
      "type": "function",
      "inputs": [
        {
          "name": "providerId",
          "type": "uint256",
          "internalType": "uint256"
        },
        {
          "name": "productType",
          "type": "uint8",
          "internalType": "enum ServiceProviderRegistryStorage.ProductType"
        }
      ],
      "outputs": [
        {
          "name": "",
          "type": "bool",
          "internalType": "bool"
        }
      ],
      "stateMutability": "view"
    },
    {
      "name": "providerProducts",
      "type": "function",
      "inputs": [
        {
          "name": "providerId",
          "type": "uint256",
          "internalType": "uint256"
        },
        {
          "name": "productType",
          "type": "uint8",
          "internalType": "enum ServiceProviderRegistryStorage.ProductType"
        }
      ],
      "outputs": [
        {
          "name": "productType",
          "type": "uint8",
          "internalType": "enum ServiceProviderRegistryStorage.ProductType"
        },
        {
          "name": "isActive",
          "type": "bool",
          "internalType": "bool"
        }
      ],
      "stateMutability": "view"
    },
    {
      "name": "providers",
      "type": "function",
      "inputs": [
        {
          "name": "providerId",
          "type": "uint256",
          "internalType": "uint256"
        }
      ],
      "outputs": [
        {
          "name": "serviceProvider",
          "type": "address",
          "internalType": "address"
        },
        {
          "name": "payee",
          "type": "address",
          "internalType": "address"
        },
        {
          "name": "name",
          "type": "string",
          "internalType": "string"
        },
        {
          "name": "description",
          "type": "string",
          "internalType": "string"
        },
        {
          "name": "isActive",
          "type": "bool",
          "internalType": "bool"
        }
      ],
      "stateMutability": "view"
    },
    {
      "name": "proxiableUUID",
      "type": "function",
      "inputs": [],
      "outputs": [
        {
          "name": "",
          "type": "bytes32",
          "internalType": "bytes32"
        }
      ],
      "stateMutability": "view"
    },
    {
      "name": "registerProvider",
      "type": "function",
      "inputs": [
        {
          "name": "payee",
          "type": "address",
          "internalType": "address"
        },
        {
          "name": "name",
          "type": "string",
          "internalType": "string"
        },
        {
          "name": "description",
          "type": "string",
          "internalType": "string"
        },
        {
          "name": "productType",
          "type": "uint8",
          "internalType": "enum ServiceProviderRegistryStorage.ProductType"
        },
        {
          "name": "capabilityKeys",
          "type": "string[]",
          "internalType": "string[]"
        },
        {
          "name": "capabilityValues",
          "type": "bytes[]",
          "internalType": "bytes[]"
        }
      ],
      "outputs": [
        {
          "name": "providerId",
          "type": "uint256",
          "internalType": "uint256"
        }
      ],
      "stateMutability": "payable"
    },
    {
      "name": "removeProduct",
      "type": "function",
      "inputs": [
        {
          "name": "productType",
          "type": "uint8",
          "internalType": "enum ServiceProviderRegistryStorage.ProductType"
        }
      ],
      "outputs": [],
      "stateMutability": "nonpayable"
    },
    {
      "name": "removeProvider",
      "type": "function",
      "inputs": [],
      "outputs": [],
      "stateMutability": "nonpayable"
    },
    {
      "name": "renounceOwnership",
      "type": "function",
      "inputs": [],
      "outputs": [],
      "stateMutability": "nonpayable"
    },
    {
      "name": "transferOwnership",
      "type": "function",
      "inputs": [
        {
          "name": "newOwner",
          "type": "address",
          "internalType": "address"
        }
      ],
      "outputs": [],
      "stateMutability": "nonpayable"
    },
    {
      "name": "updateProduct",
      "type": "function",
      "inputs": [
        {
          "name": "productType",
          "type": "uint8",
          "internalType": "enum ServiceProviderRegistryStorage.ProductType"
        },
        {
          "name": "capabilityKeys",
          "type": "string[]",
          "internalType": "string[]"
        },
        {
          "name": "capabilityValues",
          "type": "bytes[]",
          "internalType": "bytes[]"
        }
      ],
      "outputs": [],
      "stateMutability": "nonpayable"
    },
    {
      "name": "updateProviderInfo",
      "type": "function",
      "inputs": [
        {
          "name": "name",
          "type": "string",
          "internalType": "string"
        },
        {
          "name": "description",
          "type": "string",
          "internalType": "string"
        }
      ],
      "outputs": [],
      "stateMutability": "nonpayable"
    },
    {
      "name": "upgradeToAndCall",
      "type": "function",
      "inputs": [
        {
          "name": "newImplementation",
          "type": "address",
          "internalType": "address"
        },
        {
          "name": "data",
          "type": "bytes",
          "internalType": "bytes"
        }
      ],
      "outputs": [],
      "stateMutability": "payable"
    }
  ],
  "bytecode": {
    "object": "60a080604052346100c257306080525f5160206146625f395f51905f525460ff8160401c166100b3576002600160401b03196001600160401b03821601610060575b60405161459b90816100c782396080518181816123d10152613a590152f35b6001600160401b0319166001600160401b039081175f5160206146625f395f51905f525581527fc7f505b2f371ae2175ee4913f4499e1f2633a7b5936321eed1cdaeb6115181d290602090a15f80610041565b63f92ee8a960e01b5f5260045ffd5b5f80fdfe60806040526004361015610011575f80fd5b5f3560e01c80632335bde0146129855780632f67c06514612943578063315e49ea14612912578063360cc6ac146127b65780634368bafb1461271f57806346ce4175146127035780634f1ef2861461253857806350f3fc811461248357806351ca236f1461242557806352d1902d146123bf5780635bfe9146146121995780635c42d079146120fe57806360f4d53a1461208a57806364b4f751146120685780636ba4422614611fba5780636bf6d74f14611f765780636e36e97414611f5b578063715018a614611f075780637f65756714611eed5780638129fc1c14611af157806383df54a514611a8057806384b0196e146118295780638bdc7747146118015780638da5cb5b146117cd57806390d270c21461125d57806393ecb91e14610294578063a128c00514610ebc578063a643324014610e4b578063a6771f8b14610d1a578063a9d239b614610b62578063ad3cb1cc14610b1b578063add3335814610a46578063b6363b9914610888578063bd003827146107a4578063c9c5b5b414610666578063cde24beb146105f5578063d1329d4e146105b9578063d1c21b5b14610318578063dcea1c6f146102fd578063e459382f146102cc578063e835440e14610294578063f08bbda014610277578063f2fde38b1461024c5763ffa1ad74146101fd575f80fd5b34610248575f3660031901126102485761024460405161021e604082612b9f565b60058152640312e312e360dc1b60208201526040519182916020835260208301906129d3565b0390f35b5f80fd5b34610248576020366003190112610248576102756102686129bd565b610270613aad565b6138f4565b005b34610248575f366003190112610248576020600754604051908152f35b34610248576020366003190112610248576001600160a01b036102b56129bd565b165f526003602052602060405f2054604051908152f35b34610248576020366003190112610248576004356001811015610248576102f4602091612c45565b54604051908152f35b34610248575f36600319011261024857602060405160808152f35b34610248576040366003190112610248576004356001600160401b03811161024857610348903690600401612e1e565b6024356001600160401b03811161024857610367903690600401612e1e565b9092335f52600360205260405f205492831515610383816131d9565b806105ae575b6103929061321f565b5f848152600160205260409020546103b4906001600160a01b03161515613265565b835f5260016020526103cf60ff600460405f200154166138af565b6103dc60808211156135e6565b6103ea610100841115613622565b5f848152600160205260409020600201916001600160401b03821161052b5761041d826104178554612c72565b8561367b565b5f90601f831160011461054a5761043e92915f918361053f575b50506136b5565b90555b5f828152600160205260409020600301906001600160401b03811161052b576104748161046e8454612c72565b8461367b565b5f601f82116001146104c95781906104959394955f926104be5750506136b5565b90555b7fae10af73bdb200f240b1ea85ef806346fb24c82388af00414f4c5fcfeef68f765f80a2005b013590508580610437565b601f19821694835f5260205f20915f5b8781106105135750836001959697106104fa575b505050811b019055610498565b01355f19600384901b60f8161c191690558480806104ed565b909260206001819286860135815501940191016104d9565b634e487b7160e01b5f52604160045260245ffd5b013590508780610437565b601f19831691845f5260205f20925f5b818110610596575090846001959493921061057d575b505050811b019055610441565b01355f19600384901b60f8161c19169055868080610570565b9193602060018192878701358155019501920161055a565b505f54841115610389565b34610248575f366003190112610248575f54600181018091116105e157602090604051908152f35b634e487b7160e01b5f52601160045260245ffd5b3461024857602060ff600261064e61060c36612dff565b908015158061065b575b61061f9061321f565b5f818152600187526040902054610640906001600160a01b03161515613265565b5f5282855260405f20612c5c565b0154166040519015158152f35b505f54811115610616565b34610248576020366003190112610248576004356001600160401b03811161024857610696903690600401612c13565b61069e613a4f565b6106a6613aad565b5f5160206145065f395f51905f525460ff8160401c1690811561078c575b5061077d575f5160206145065f395f51905f52805460026001600160401b0319821681179092555f5160206144c65f395f51905f5254604080518181526001600160481b0319909316909317937f2b51ff7c4cc8e6fe1c72e9d9685b7d2a88a5d82ad3a644afbdceb0272c89c1c39383926001600160a01b03169161074b918401906129d3565b9060208301520390a15f5160206145065f395f51905f52555f5160206144465f395f51905f52602060405160028152a1005b63f92ee8a960e01b5f5260045ffd5b60026001600160401b039190911610159050826106c4565b34610248576040366003190112610248576107bd613aad565b610bb86107c8613883565b3b1115610248576107d7613899565b436001600160601b039091161115610248576001600160a01b036107f9613883565b1660018060a01b03196008541617600855610812613899565b600880546001600160a01b0390811660a09390931b6001600160a01b031916929092179055604051906108436129bd565b1681526024356001600160601b03811690819003610248578160409160207fbcf8666408d712c75c2cbd790925afbec6495ca9e04186b1182902260a1d53cd940152a1005b34610248575f36600319011261024857335f52600360205260405f20548015156108b1816131d9565b80610a3b575b6108c09061321f565b5f818152600160205260409020546108e2906001600160a01b03161515613265565b805f5260016020526108fd60ff600460405f200154166138af565b5f8181526001602052604090205461091f906001600160a01b031633146139ba565b805f526001602052600460405f200160ff198154169055610941600754614046565b600755805f52600260205260405f205f805260205260405f20600281019060ff8254166109b2575b82805f52600160205260018060a01b0360405f2054165f5260036020525f60408120557f452148878c72ebab44f2761cb8b0b79c50628a437350aee5f3aab66625addcc45f80a2005b905f8052600660205260405f206109c98154614046565b9055825f52600460205260405f205f805260205260405f20905f9060018401915b8254811015610a185780610a12610a0d86610a0760019588613f5e565b50613f73565b613ff8565b016109ea565b50835460ff1916909355610a2c9150613af8565b805460ff191690558180610969565b505f548111156108b7565b3461024857610244610a5736612dff565b610a5f6132a6565b5081151580610b10575b610a729061321f565b5f82815260016020526040902054610a94906001600160a01b03161515613265565b815f526001602052610af260405f2091835f526002602052610ae8610ad3610abf8360405f20612c5c565b92610acc600185016132eb565b9087613772565b9360405195610ae187612b69565b8652612f18565b6020850152613354565b60408301526060820152604051918291602083526020830190612d90565b505f54821115610a69565b34610248575f36600319011261024857610244604051610b3c604082612b9f565b60058152640352e302e360dc1b60208201526040519182916020835260208301906129d3565b3461024857602036600319011261024857600435600181101561024857610b89811561317b565b335f52600360205260405f2054801515610ba2816131d9565b80610d0f575b610bb19061321f565b5f81815260016020526040902054610bd3906001600160a01b03161515613265565b805f526001602052610bee60ff600460405f200154166138af565b5f81815260016020526040902054610c10906001600160a01b031633146139ba565b805f526002602052610c3460ff6002610c2c8560405f20612c5c565b015416613f01565b805f526002602052610c498260405f20612c5c565b815f526004602052610c5e8360405f20612c5c565b9260015f9201915b8254811015610c895780610c83610a0d87610a0760019588613f5e565b01610c66565b5082805f5260026020526002610ca28360405f20612c5c565b01805460ff19169055610cb482612c2e565b610cbe8154614046565b9055805f5260026020525f6002610cd88460408420612c5c565b828155610ce760018201613af8565b01557f4c363c6cd3d80189ef501b26de41894b3ed5e7b4a85b096be6cbcaa8a13e5e4d5f80a3005b505f54811115610ba8565b3461024857610d2836612dff565b9080151580610e40575b610d3b9061321f565b5f81815260016020526040902054610d5d906001600160a01b03161515613265565b805f526002602052610d728260405f20612c5c565b90610da6610d8a600160ff60028601541694016132eb565b93610d95855161383a565b925f52600460205260405f20612c5c565b5f5b8451811015610e0e5780610deb610df2602080610dc76001968b613004565b51604051928184925191829101835e81018881520301902060405192838092612caa565b0382612b9f565b610dfc8286613004565b52610e078185613004565b5001610da8565b505061024490610e3260405194859415158552606060208601526060850190612d38565b908382036040850152612d38565b505f54811115610d32565b34610248576060366003190112610248576024356001811015610248576044356001600160401b03811161024857366023820112156102485761024491610e9f610ea8923690602481600401359101612e62565b90600435613772565b604051918291602083526020830190612d38565b3461024857610eca36612ad5565b93919092600183101561124957610ee1831561317b565b335f526003602052610f0660405f20549182151593610eff856131d9565b3691612e62565b918061123e575b610f199095949561321f565b5f81815260016020526040902054610f3b906001600160a01b03161515613265565b805f526001602052610f5660ff600460405f200154166138af565b5f81815260016020526040902054610f78906001600160a01b031633146139ba565b805f526002602052610f8d8360405f20612c5c565b936002850195610fa060ff885416613f01565b610faa8486614294565b610fb582828661407d565b825f526004602052610fca8560405f20612c5c565b945f9760018801985b8954811015610ff65780610ff0610a0d8a610a076001958f613f5e565b01610fd3565b5088611006838a99979899613ae0565b87516110128183613b79565b60208901915f5260205f20915f905b82821061116b5750505050600160ff198254161790555f5b86518110156111305761104d818585613c0a565b60208061105a858c613004565b51604051928184925191829101835e81018a815203019020916001600160401b03821161052b5761108f826104178554612c72565b5f90601f83116001146110c85791806110b49260019695945f926110bd5750506136b5565b90555b01611039565b013590508c80610437565b601f19831691845f5260205f20925f5b8181106111185750916001969594929183889593106110ff575b505050811b0190556110b7565b01355f19600384901b60f8161c191690558b80806110f2565b919360206001819287870135815501950192016110d8565b50847f19305e69de03c2e3298427ad2c225fef7bc07a55c9a1a6b930f5d21ad6f221488388611166876040519384933385613a1b565b0390a3005b80518051906001600160401b03821161052b576111928261118c8854612c72565b8861367b565b602090601f83116001146111d557926111bb836001959460209487965f926111ca5750506136b5565b87555b01940191019092611021565b015190505f80610437565b90601f19831691875f52815f20925f5b818110611226575093602093600196938796938388951061120e575b505050811b0187556111be565b01515f1960f88460031b161c191690555f8080611201565b929360206001819287860151815501950193016111e5565b505f54811115610f0d565b634e487b7160e01b5f52602160045260245ffd5b60c0366003190112610248576112716129bd565b6024356001600160401b03811161024857611290903690600401612e1e565b91906044356001600160401b038111610248576112b1903690600401612e1e565b919093606435936001851015610248576084356001600160401b038111610248576112e0903690600401612aa5565b94909360a4356001600160401b03811161024857611302903690600401612aa5565b94909361130f891561317b565b6001600160a01b031692831561178957335f52600360205260405f205461174757674563918244f40000340361170b5761134c60808311156135e6565b61135a610100821115613622565b61139c6113675f54612ff6565b9a8b5f5561138d6040519561137b87612b4e565b33875260208701958887523691612bdd565b92604086019384523691612bdd565b606084019081526001608085018181525f8d8152602083905260409020955186546001600160a01b03199081166001600160a01b03928316178855955192870180549096169216919091179093559051805160028501916001600160401b03821161052b5761140f826104178554612c72565b602090601f83116001146116a85761143092915f918361169d5750506136b5565b90555b51805160038401916001600160401b03821161052b57611457826104178554612c72565b602090601f831160011461162857826114a496959360049593611481935f9261161d5750506136b5565b9055908a98979695949392915b51151591019060ff801983541691151516179055565b335f5260036020528560405f20556114bd600754612ff6565b60075533867faff7a33d237d3d600a92c556cda34cb73cf7cccc667e163c90b1d2d392b031a55f80a46114fd82826114f6368888612e62565b8989613c4b565b6040519380606086013387526060602088015252608085019060808160051b8701019480925f915b8383106115dd57898b815f5160206143e65f395f51905f528c806115528e8e8e8483036040860152613719565b0390a36040515f8152674563918244f4000081602001525f81604001525f81606001525f816080015260638160a0015260c08181816005607f60991b015af4905115601f3d111616156115aa57602090604051908152f35b60405162461bcd60e51b815260206004820152600b60248201526a109d5c9b8819985a5b195960aa1b6044820152606490fd5b919397985091939495602080611608600193607f198d82030187526116028c876136e7565b906136c7565b99019301930190928a98979695949293611525565b015190508f80610437565b90601f19831691845f52815f20925f5b81811061168557509260019285926114a4999896600498961061166d575b505050811b019055908a989796959493929161148e565b01515f1960f88460031b161c191690558e8080611656565b92936020600181928786015181550195019301611638565b015190508e80610437565b90601f19831691845f52815f20925f5b8181106116f357509084600195949392106116db575b505050811b019055611433565b01515f1960f88460031b161c191690558d80806116ce565b929360206001819287860151815501950193016116b8565b60405162461bcd60e51b8152602060048201526014602482015273125b98dbdc9c9958dd0819995948185b5bdd5b9d60621b6044820152606490fd5b60405162461bcd60e51b815260206004820152601a6024820152791059191c995cdcc8185b1c9958591e481c9959da5cdd195c995960321b6044820152606490fd5b60405162461bcd60e51b815260206004820152601c60248201527b50617965652063616e6e6f74206265207a65726f206164647265737360201b6044820152606490fd5b34610248575f366003190112610248575f5160206144265f395f51905f52546040516001600160a01b039091168152602090f35b34610248576020366003190112610248576004356001811015610248576102f4602091612c2e565b34610248575f366003190112610248575f5160206144865f395f51905f52541580611a6a575b15611a2d576040515f5160206144065f395f51905f5254815f61187183612c72565b8083529260018116908115611a0e57506001146119b6575b61189592500382612b9f565b604051905f5f5160206144665f395f51905f52546118b281612c72565b80855290600181169081156119945750600114611943575b50826118de61191594610244930382612b9f565b611923604051916118f0602084612b9f565b5f83525f368137604051958695600f60f81b875260e0602088015260e08701906129d3565b9085820360408701526129d3565b904660608501523060808501525f60a085015283820360c0850152612a72565b5f5160206144665f395f51905f525f90815291505f5160206145465f395f51905f525b81831061197a5750508201602001826118ca565b600181602092949394548385890101520191019190611966565b60ff191660208087019190915291151560051b850190910191508390506118ca565b505f5160206144065f395f51905f525f90815290915f5160206144a65f395f51905f525b8183106119f257505090602061189592820101611889565b60209193508060019154838588010152019101909183926119da565b6020925061189594915060ff191682840152151560051b820101611889565b60405162461bcd60e51b81526020600482015260156024820152741152540dcc4c8e88155b9a5b9a5d1a585b1a5e9959605a1b6044820152606490fd5b505f5160206145265f395f51905f52541561184f565b346102485760203660031901126102485760043580151580611ae6575b611aa69061321f565b5f81815260016020526040902054611ac8906001600160a01b03161515613265565b5f526001602052602060ff600460405f200154166040519015158152f35b505f54811115611a9d565b34610248575f366003190112610248575f5160206145065f395f51905f5254604081901c60ff1615906001600160401b031680159081611ee5575b6001149081611edb575b159081611ed2575b5061077d575f5160206145065f395f51905f5280546001600160401b031916600117905580611eae575b611b70614052565b611b78614052565b611b81336138f4565b611b89614052565b604090815191611b998184612b9f565b60178352765365727669636550726f7669646572526567697374727960481b6020840152805191611bca8284612b9f565b60018352603160f81b6020840152611be0614052565b611be8614052565b83516001600160401b03811161052b57611c0f5f5160206144065f395f51905f5254612c72565b601f8111611e67575b50602094601f8211600114611dec57611c3d9293949582915f92611de15750506136b5565b5f5160206144065f395f51905f52555b82516001600160401b03811161052b57611c745f5160206144665f395f51905f5254612c72565b601f8111611d8f575b506020601f8211600114611d14578190611ca09394955f92611d095750506136b5565b5f5160206144665f395f51905f52555b5f5f5160206144865f395f51905f52555f5f5160206145265f395f51905f5255611cd657005b5f5160206145065f395f51905f52805460ff60401b1916905551600181525f5160206144465f395f51905f5290602090a1005b015190508580610437565b601f198216905f5160206144665f395f51905f525f52805f20915f5b818110611d7757509583600195969710611d5f575b505050811b015f5160206144665f395f51905f5255611cb0565b01515f1960f88460031b161c19169055848080611d45565b9192602060018192868b015181550194019201611d30565b5f5160206144665f395f51905f525f52611dd1905f5160206145465f395f51905f52601f840160051c81019160208510611dd7575b601f0160051c0190613665565b84611c7d565b9091508190611dc4565b015190508680610437565b601f198216955f5160206144065f395f51905f525f52805f20915f5b888110611e4f57508360019596979810611e37575b505050811b015f5160206144065f395f51905f5255611c4d565b01515f1960f88460031b161c19169055858080611e1d565b91926020600181928685015181550194019201611e08565b5f5160206144065f395f51905f525f52611ea8905f5160206144a65f395f51905f52601f840160051c81019160208510611dd757601f0160051c0190613665565b85611c18565b5f5160206145065f395f51905f52805460ff60401b1916600160401b179055611b68565b90501582611b3e565b303b159150611b36565b829150611b2c565b34610248575f366003190112610248576020604051818152f35b34610248575f36600319011261024857611f1f613aad565b5f5160206144265f395f51905f5280546001600160a01b031981169091555f906001600160a01b03165f5160206144e65f395f51905f528280a3005b34610248575f36600319011261024857602060405160188152f35b34610248576040611f99611f8936612dff565b905f526002602052825f20612c5c565b60ff60028183541692015416611fb183518093612d2b565b15156020820152f35b3461024857608036600319011261024857600435600181101561024857602435801515810361024857611ff4916064359160443591613391565b60405160208152606081018251906040602084015281518091526080830190602060808260051b8601019301915f905b82821061203d5760208701511515604087015285850386f35b9091929360208061205a600193607f198a82030186528851612d90565b960192019201909291612024565b34610248575f366003190112610248576020604051674563918244f400008152f35b3461024857602036600319011261024857600435801515806120f3575b6120b09061321f565b5f818152600160205260409020546120d2906001600160a01b03161515613265565b5f526001602052602060018060a01b03600160405f20015416604051908152f35b505f548111156120a7565b346102485760203660031901126102485761024460043561211d612ef8565b508015158061218e575b6121309061321f565b5f81815260016020526040902054612152906001600160a01b03161515613265565b805f52600160205261217560405f206040519261216e84612b33565b8352612f18565b6020820152604051918291602083526020830190612a52565b505f54811115612127565b34610248576020366003190112610248576004356001600160401b038111610248576121c9903690600401612aa5565b6121d281612e4b565b6121df6040519182612b9f565b818152601f196121ee83612e4b565b015f5b8181106123a857505061220382612e4b565b926122116040519485612b9f565b82845261221d83612e4b565b602085019190601f19013683375f54915f5b85811015612301576001908060051b840135801515806122f7575b156122ee57805f528260205260405f20838060a01b038154161515806122e0575b156122af57612281906040519261216e84612b33565b60208201526122908288613004565b5261229b8187613004565b50816122a7828a613004565b525b0161222f565b50506122b9613952565b6122c38288613004565b526122ce8187613004565b505f6122da828a613004565b526122a9565b5060ff60048201541661226b565b506122b9613952565b508581111561224a565b848783604051928392604084016040855282518091526060850190602060608260051b8801019401915f905b82821061237557505050506020908483038286015251918281520191905f5b81811061235a575050500390f35b8251151584528594506020938401939092019160010161234c565b9193946001919396975060206123968192605f198c82030186528951612a52565b9701920192018796959493919261232d565b6020906123b3612ef8565b828286010152016121f1565b34610248575f366003190112610248577f00000000000000000000000000000000000000000000000000000000000000006001600160a01b031630036124165760206040515f5160206144c65f395f51905f528152f35b63703e46dd60e11b5f5260045ffd5b34610248576020366003190112610248576001600160a01b036124466129bd565b165f52600360205260405f205480151580612469575b6020906040519015158152f35b505f526001602052602060ff600460405f2001541661245c565b34610248576020366003190112610248576004355f52600160205260405f2060018060a01b0381541660018060a01b036001830154169161252c604051916124d9836124d28160028501612caa565b0384612b9f565b61251e60ff6004604051936124fc856124f58160038501612caa565b0386612b9f565b015416936040519687968752602087015260a0604087015260a08601906129d3565b9084820360608601526129d3565b90151560808301520390f35b60403660031901126102485761254c6129bd565b6024356001600160401b03811161024857366023820112156102485761257c903690602481600401359101612bdd565b612584613a4f565b61258c613aad565b6008546001600160a01b03808416939190811684036102485760a01c4310610248575f6008556040516352d1902d60e01b8152602081600481875afa5f91816126cf575b506125e85783634c9c8ce360e01b5f5260045260245ffd5b805f5160206144c65f395f51905f528592036126bd5750813b156126ab575f5160206144c65f395f51905f5280546001600160a01b031916821790557fbc7cd75a20ee27fd9adebab32041f755214dbc6bffa90cc0225b39da2e5c2d3b5f80a2815115612693575f8083602061027595519101845af43d1561268b573d9161266f83612bc2565b9261267d6040519485612b9f565b83523d5f602085013e614387565b606091614387565b50503461269c57005b63b398979f60e01b5f5260045ffd5b634c9c8ce360e01b5f5260045260245ffd5b632a87526960e21b5f5260045260245ffd5b9091506020813d6020116126fb575b816126eb60209383612b9f565b81010312610248575190856125d0565b3d91506126de565b34610248575f3660031901126102485760205f54604051908152f35b3461024857606036600319011261024857602435600181101561024857604435906001600160401b038211610248576127a2602080610deb9361277f61276c610244973690600401612c13565b916004355f526004845260405f20612c5c565b604051938285935191829101845e82019081520301902060405192838092612caa565b6040519182916020835260208301906129d3565b34610248576127c436612ad5565b916001851015611249576127d8851561317b565b335f5260036020526127f660405f20549485151592610eff846131d9565b9080612907575b6128069061321f565b5f84815260016020526040902054612828906001600160a01b03161515613265565b835f52600160205261284360ff600460405f200154166138af565b5f84815260016020526040902054612865906001600160a01b031633146139ba565b835f52600260205260ff600261287e8760405f20612c5c565b0154166128b157611166836128a45f5160206143e65f395f51905f529585858a8a613c4b565b6040519384933385613a1b565b60405162461bcd60e51b815260206004820152602860248201527f50726f6475637420616c72656164792065786973747320666f72207468697320604482015267383937bb34b232b960c11b6064820152608490fd5b505f548411156127fd565b34610248575f36600319011261024857600854604080516001600160a01b038316815260a09290921c602083015290f35b346102485760403660031901126102485761297961296560243560043561302c565b604051928392604084526040840190612a72565b90151560208301520390f35b34610248576020366003190112610248576102446129a96129a46129bd565b612f89565b604051918291602083526020830190612a52565b600435906001600160a01b038216820361024857565b805180835260209291819084018484015e5f828201840152601f01601f1916010190565b9060018060a01b03825116815260018060a01b036020830151166020820152608080612a47612a35604086015160a0604087015260a08601906129d3565b606086015185820360608701526129d3565b930151151591015290565b9060406020612a6f938051845201519181602082015201906129f7565b90565b90602080835192838152019201905f5b818110612a8f5750505090565b8251845260209384019390920191600101612a82565b9181601f84011215610248578235916001600160401b038311610248576020808501948460051b01011161024857565b90606060031983011261024857600435600181101561024857916024356001600160401b0381116102485781612b0d91600401612aa5565b90929091604435906001600160401b03821161024857612b2f91600401612aa5565b9091565b604081019081106001600160401b0382111761052b57604052565b60a081019081106001600160401b0382111761052b57604052565b608081019081106001600160401b0382111761052b57604052565b606081019081106001600160401b0382111761052b57604052565b601f909101601f19168101906001600160401b0382119082101761052b57604052565b6001600160401b03811161052b57601f01601f191660200190565b929192612be982612bc2565b91612bf76040519384612b9f565b829481845281830111610248578281602093845f960137010152565b9080601f8301121561024857816020612a6f93359101612bdd565b6001811015611249575f52600660205260405f2090565b6001811015611249575f52600560205260405f2090565b906001811015611249575f5260205260405f2090565b90600182811c92168015612ca0575b6020831014612c8c57565b634e487b7160e01b5f52602260045260245ffd5b91607f1691612c81565b5f9291815491612cb983612c72565b8083529260018116908115612d0e5750600114612cd557505050565b5f9081526020812093945091925b838310612cf4575060209250010190565b600181602092949394548385870101520191019190612ce3565b915050602093945060ff929192191683830152151560051b010190565b9060018210156112495752565b9080602083519182815201916020808360051b8301019401925f915b838310612d6357505050505090565b9091929394602080612d81600193601f1986820301875289516129d3565b97019301930191939290612d54565b612a6f91815181526060612db360208401516080602085015260808401906129f7565b926040810151938381036040850152612dcd818651612d2b565b604080612de7602088015186602086015286850190612d38565b96015115159101520151906060818403910152612d38565b6040906003190112610248576004359060243560018110156102485790565b9181601f84011215610248578235916001600160401b038311610248576020838186019501011161024857565b6001600160401b03811161052b5760051b60200190565b929190612e6e81612e4b565b93612e7c6040519586612b9f565b602085838152019160051b8101918383116102485781905b838210612ea2575050505050565b81356001600160401b03811161024857602091612ec28784938701612c13565b815201910190612e94565b60405190612eda82612b4e565b5f608083828152826020820152606060408201526060808201520152565b60405190612f0582612b33565b815f81526020612f13612ecd565b910152565b90604051612f2581612b4e565b82546001600160a01b03908116825260018401541660208201526040519092839160809160ff9160049190612f6181610deb8160028601612caa565b6040860152604051612f7a81610deb8160038601612caa565b60608601520154161515910152565b612f91612ef8565b506001600160a01b03165f908152600360205260409020548015612fd357805f526001602052612fcb60405f206040519261216e84612b33565b602082015290565b50612a6f613952565b919082018092116105e157565b919082039182116105e157565b5f1981146105e15760010190565b80518210156130185760209160051b010190565b634e487b7160e01b5f52603260045260245ffd5b9190600754808410801590613173575b613155578061304b8386612fdc565b11613143575b61305a82612e4b565b936130686040519586612b9f565b828552601f1961307784612e4b565b01366020870137849161308a8483612fdc565b10905f925f926001965f54975b888111158061313a575b1561312e57805f52600160205260ff600460405f200154166130cc575b6130c790612ff6565b613097565b958987868310158061311c575b6130f4575b50506130ec6130c791612ff6565b9690506130be565b916130c7926131118961310b6130ec959b91612ff6565b9a613004565b5291505089876130de565b506131278a88612fdc565b83106130d9565b50955095509550505050565b508786106130a1565b905061314f8382612fe9565b90613051565b50509050604051613167602082612b9f565b5f81525f368137905f90565b50811561303c565b1561318257565b60405162461bcd60e51b815260206004820152602960248201527f4f6e6c79205044502070726f6475637420747970652063757272656e746c79206044820152681cdd5c1c1bdc9d195960ba1b6064820152608490fd5b156131e057565b60405162461bcd60e51b8152602060048201526017602482015276141c9bdd9a59195c881b9bdd081c9959da5cdd195c9959604a1b6044820152606490fd5b1561322657565b60405162461bcd60e51b8152602060048201526017602482015276141c9bdd9a59195c88191bd95cc81b9bdd08195e1a5cdd604a1b6044820152606490fd5b1561326c57565b60405162461bcd60e51b8152602060048201526012602482015271141c9bdd9a59195c881b9bdd08199bdd5b9960721b6044820152606490fd5b604051906132b382612b69565b606080835f81526132c2612ecd565b60208201526040516132d381612b84565b5f81528260208201525f604082015260408201520152565b9081546132f781612e4b565b926133056040519485612b9f565b81845260208401905f5260205f205f915b8383106133235750505050565b60016020819260405161333a81610deb8189612caa565b815201920192019190613316565b60018210156112495752565b9060405161336181612b84565b604060ff600283956133768382541686613348565b613382600182016132eb565b60208601520154161515910152565b90939291604051906133a282612b33565b60608252602082015f815282875f146135d6576133be85612c2e565b54915b8284108015906135ce575b613588575050806133dd8684612fdc565b11613576575b6133ec85612e4b565b6133f96040519182612b9f565b858152601f1961340887612e4b565b015f5b81811061355f57505083526134208583612fdc565b1060208301525f925f916001965f54975b8881111580613556575b1561354a57891561353157805f52600160205260ff600460405f200154168061350f575b613472575b61346d90612ff6565b613431565b9582811015806134fd575b613496575b61348e61346d91612ff6565b969050613464565b9361348e6134f461346d92895f5260016020526134ee818b60405f20815f5260026020526134d18b610ae8610ad3610abf8360405f20612c5c565b604083015260608201528b51906134e88383613004565b52613004565b50612ff6565b95915050613482565b506135088884612fdc565b811061347d565b50805f52600260205260ff60026135298660405f20612c5c565b01541661345f565b805f52600260205260ff60026135298660405f20612c5c565b50965050505093505050565b5087851061343b565b60209061356a6132a6565b8282860101520161340b565b93506135828185612fe9565b936133e3565b969750959450505050506040516135a0602082612b9f565b5f81525f805b8181106135b757505082525f905290565b6020906135c26132a6565b828286010152016135a6565b5086156133cc565b6135df85612c45565b54916133c1565b156135ed57565b60405162461bcd60e51b815260206004820152600d60248201526c4e616d6520746f6f206c6f6e6760981b6044820152606490fd5b1561362957565b60405162461bcd60e51b81526020600482015260146024820152734465736372697074696f6e20746f6f206c6f6e6760601b6044820152606490fd5b818110613670575050565b5f8155600101613665565b9190601f811161368a57505050565b6136b3925f5260205f20906020601f840160051c83019310611dd757601f0160051c0190613665565b565b8160011b915f199060031b1c19161790565b908060209392818452848401375f828201840152601f01601f1916010190565b9035601e1982360301811215610248570160208101919035906001600160401b03821161024857813603831361024857565b90602083828152019260208260051b82010193835f925b8484106137405750505050505090565b909192939495602080613762600193601f198682030188526116028b886136e7565b9801940194019294939190613730565b91906137c7908315158061382f575b61378a9061321f565b5f848152600160205260409020546137ac906001600160a01b03161515613265565b6137b6835161383a565b935f52600460205260405f20612c5c565b905f5b81518110156138295780610deb61380d6020806137e960019688613004565b51604051928184925191829101835e81018981520301902060405192838092612caa565b6138178287613004565b526138228186613004565b50016137ca565b50505090565b505f54841115613781565b9061384482612e4b565b6138516040519182612b9f565b8281528092613862601f1991612e4b565b01905f5b82811061387257505050565b806060602080938501015201613866565b6004356001600160a01b03811681036102485790565b6024356001600160601b03811681036102485790565b156138b657565b60405162461bcd60e51b815260206004820152601660248201527550726f7669646572206973206e6f742061637469766560501b6044820152606490fd5b6001600160a01b0316801561393f575f5160206144265f395f51905f5280546001600160a01b0319811683179091556001600160a01b03165f5160206144e65f395f51905f525f80a3565b631e4fbdf760e01b5f525f60045260245ffd5b61395a612ef8565b5060405161396781612b4e565b5f81525f602082015260405161397e602082612b9f565b5f81526040820152604051613994602082612b9f565b5f815260608201525f6080820152604051906139af82612b33565b5f8252602082015290565b156139c157565b60405162461bcd60e51b815260206004820152602c60248201527f4f6e6c7920736572766963652070726f76696465722063616e2063616c6c207460448201526b3434b990333ab731ba34b7b760a11b6064820152608490fd5b9290612a6f9492613a419160018060a01b03168552606060208601526060850190612d38565b926040818503910152613719565b6001600160a01b037f000000000000000000000000000000000000000000000000000000000000000016308114908115613a8b575b5061241657565b5f5160206144c65f395f51905f52546001600160a01b0316141590505f613a84565b5f5160206144265f395f51905f52546001600160a01b03163303613acd57565b63118cdaa760e01b5f523360045260245ffd5b9060018110156112495760ff80198354169116179055565b8054905f815581613b07575050565b5f5260205f20908101905b818110613b1d575050565b80613b2a60019254612c72565b80613b37575b5001613b12565b601f81118314613b4c57505f81555b5f613b30565b613b6890825f5283601f60205f20920160051c82019101613665565b805f525f6020812081835555613b46565b90600160401b811161052b57815491818155828210613b9757505050565b5f5260205f2091820191015b818110613bae575050565b80613bbb60019254612c72565b80613bc8575b5001613ba3565b601f81118314613bdd57505f81555b5f613bc1565b613bf990825f5283601f60205f20920160051c82019101613665565b805f525f6020812081835555613bd7565b91908110156130185760051b81013590601e19813603018212156102485701803591906001600160401b038311610248576020018236038113610248579190565b949290939194613c5c83838861407d565b613c668686614294565b604051613c7281612b84565b613c7c8682613348565b60208101878152604082019060018252835f526002602052613ca18860405f20612c5c565b9251600181101561124957613cb69084613ae0565b6001830190516020815191613ccb8385613b79565b01915f5260205f20915f905b828210613e3f5750505050906002613cff9251151591019060ff801983541691151516179055565b5f526004602052613d138460405f20612c5c565b925f5b8651811015613e0d57613d2a818585613c0a565b602080613d37858c613004565b51604051928184925191829101835e81018a815203019020916001600160401b03821161052b57613d6c826104178554612c72565b5f90601f8311600114613da5579180613d919260019695945f92613d9a5750506136b5565b90555b01613d16565b013590505f80610437565b601f19831691845f5260205f20925f5b818110613df5575091600196959492918388959310613ddc575b505050811b019055613d94565b01355f19600384901b60f8161c191690555f8080613dcf565b91936020600181928787013581550195019201613db5565b509450505050613e3190613e2081612c45565b613e2a8154612ff6565b9055612c2e565b613e3b8154612ff6565b9055565b80518051906001600160401b03821161052b57613e608261118c8854612c72565b602090601f8311600114613e985792613e89836001959460209487965f926111ca5750506136b5565b87555b01940191019092613cd7565b90601f19831691875f52815f20925f5b818110613ee95750936020936001969387969383889510613ed1575b505050811b018755613e8c565b01515f1960f88460031b161c191690555f8080613ec4565b92936020600181928786015181550195019301613ea8565b15613f0857565b60405162461bcd60e51b815260206004820152602860248201527f50726f6475637420646f6573206e6f7420657869737420666f72207468697320604482015267383937bb34b232b960c11b6064820152608490fd5b8054821015613018575f5260205f2001905f90565b9060405180925f90805490613f8782612c72565b9160018116908115613fe05750600114613faa575b505060209281520301902090565b9091505f5260205f205f905b828210613fc9575050810160205f613f9c565b805482870152859350602090910190600101613fb6565b60ff191685525050801515028201905060205f613f9c565b6140028154612c72565b908161400c575050565b81601f5f931160011461401d575055565b8183526020832061403991601f0160051c810190600101613665565b8082528160208120915555565b80156105e1575f190190565b60ff5f5160206145065f395f51905f525460401c161561406e57565b631afcd79f60e31b5f5260045ffd5b9190918181510361423a5760188151116141fd575f5b81518110156141f7576140a68183613004565b5151156141b25760206140b98284613004565b515111614173576140cb818486613c0a565b90501561412f5760806140df828587613c0a565b9050116140ee57600101614093565b60405162461bcd60e51b81526020600482015260196024820152784361706162696c6974792076616c756520746f6f206c6f6e6760381b6044820152606490fd5b606460405162461bcd60e51b815260206004820152602060248201527f4361706162696c6974792076616c75652063616e6e6f7420626520656d7074796044820152fd5b60405162461bcd60e51b81526020600482015260176024820152764361706162696c697479206b657920746f6f206c6f6e6760481b6044820152606490fd5b60405162461bcd60e51b815260206004820152601e60248201527f4361706162696c697479206b65792063616e6e6f7420626520656d70747900006044820152606490fd5b50505050565b60405162461bcd60e51b8152602060048201526015602482015274546f6f206d616e79206361706162696c697469657360581b6044820152606490fd5b60405162461bcd60e51b815260206004820152602c60248201527f4b65797320616e642076616c75657320617272617973206d757374206861766560448201526b040e6c2daca40d8cadccee8d60a31b6064820152608490fd5b909160018210156112495781614347577f5b6a06f24dd05729018c808802020eb60947d813531db3c45b14504401400102905f905f5b8551811015614328576142dd8187613004565b51805190602001205f905f5b601081106143115750508080861614614306575b506001016142ca565b9092179160016142fd565b90916001908160ff85161b179260081c91016142e9565b5093508116036143355750565b63dd978c4f60e01b5f5260045260245ffd5b60405162461bcd60e51b8152602060048201526018602482015277556e737570706f727465642070726f64756374207479706560401b6044820152606490fd5b906143ab575080511561439c57602081519101fd5b63d6bda27560e01b5f5260045ffd5b815115806143dc575b6143bc575090565b639996b31560e01b5f9081526001600160a01b0391909116600452602490fd5b50803b156143b456fef736f1c7fa0eb68f0384383abc0d4dcc8208127acfb5c87f03f965f2a8a69686a16a46d94261c7517cc8ff89f61c0ce93598e3c849801011dee649a6a557d1029016d09d72d40fdae2fd8ceac6b6234c7706214fd39c1cd1e609a0528c199300c7f505b2f371ae2175ee4913f4499e1f2633a7b5936321eed1cdaeb6115181d2a16a46d94261c7517cc8ff89f61c0ce93598e3c849801011dee649a6a557d103a16a46d94261c7517cc8ff89f61c0ce93598e3c849801011dee649a6a557d10042ad5d3e1f2e6e70edcf6d991b8a3023d3fca8047a131592f9edb9fd9b89d57d360894a13ba1a3210667c828492db98dca3e2076cc3735a920a3ca505d382bbc8be0079c531659141344cd1fd0a4f28419497f9722a3daafe3b4186f6b6457e0f0c57e16840df040f15088dc2f81fe391c3923bec73e23a9662efc9c229c6a00a16a46d94261c7517cc8ff89f61c0ce93598e3c849801011dee649a6a557d1015f9ce34815f8e11431c7bb75a8e6886a91478f7ffc1dbb0a98dc240fddd76b75a26469706673582212203b4cd970ac9ba2b01339147535baaf8c0be409d452aff51e02a6126d2d05867b64736f6c634300081e0033f0c57e16840df040f15088dc2f81fe391c3923bec73e23a9662efc9c229c6a00",
    "linkReferences": {}
  }
}